:020000040800F2
:10000000D81F002065050008690300086B0300087D
:100010006F03000873030008770300080000000066
:100020000000000000000000000000007B0300084A
:100030007D030008000000007F0300088103000822
:100040007F0500087F0500087F0500087F05000880
:100050007F0500087F0500087F0500087F05000870
:100060007F0500087F0500087F0500087F05000860
:100070007F0500087F0500087F0500087F05000850
:100080007F0500087F0500087F0500087F05000840
:100090007F0500087F0500087F0500087F05000830
:1000A0007F0500087F0500087F0500087F05000820
:1000B000312300087F0500087F0500087F05000840
:1000C0007F0500087F0500087F0500087F05000800
:1000D0007F0500084B2200087F0500087F05000807
:1000E0007F0500087F0500087F05000800F002F882
:1000F00000F06AF80AA090E8000C82448344AAF158
:100100000107DA4501D100F05FF8AFF2090EBAE855
:100110000F0013F0010F18BFFB1A43F0010318473B
:100120000CBB00002CBB00000A444FF0000C10F880
:10013000013B13F0070408BF10F8014B1D1108BF65
:1001400010F8015B641E05D010F8016B641E01F805
:10015000016BF9D113F0080F1EBF10F8014BAD1C55
:100160000C1B09D16D1E58BF01F801CBFAD505E073
:1001700014F8016B01F8016B6D1EF9D59142D6D3CD
:10018000704700000023002400250026103A28BFF5
:1001900078C1FBD8520728BF30C148BF0B607047F9
:1001A000662909F0C880642906F0BE8200207047E5
:1001B0001FB506F0EFFE04000020002107F0F2FF5B
:1001C000E0601FBD10B510BD07F010F81146FFF735
:1001D000EFFF00F009F807F02EF803B4FFF7F2FF85
:1001E00003BC01F0D7FF00000EB500200090019085
:1001F000029001F065FF4FF4E13001F0DAFF06F004
:10020000B5F905F0E8FE02F0B6FD02F072FA02F070
:1002100084FA40F2CF2140F2CF7002F05BF878E030
:1002200040F2E73001F089FF3A48B0F90040E117A9
:1002300004EB5151C81208F0ABFE3749086035484D
:10024000B0F90240E11704EB5151C81208F0A0FECA
:10025000324908602F48B0F90440E11704EB5151CE
:10026000C81208F095FE2E4908602E492C480068F7
:1002700008F0BAFF07D24FF07E512B48006808F013
:10028000E7FC294908602848006808F0B5FC0446E6
:1002900022460B4625A1684606F032FA10236A462C
:1002A0000021184605F0DDFF2348006808F0A4FC93
:1002B000044622460B4621A1684606F021FA102387
:1002C0006A461946184605F0CCFF1F48006808F03A
:1002D00093FC044622460B461CA1684606F010FA21
:1002E00010236A462021184605F0BBFF1A48006813
:1002F00008F082FC044622460B4618A1684606F028
:10030000FFF910236A463021184605F0AAFF05F0D0
:1003100062FE85E754000020100000201400002039
:1003200018000020000040400C000020537465704D
:1003300020203A252E3266000000002050697463A8
:10034000683A252E3266000004000020526F6C6C63
:10035000203A252E326600000800002059617720DF
:10036000203A252E32660000704700BFFEE700BF2E
:10037000FEE700BFFEE700BFFEE77047704770472B
:10038000704700000CB50020019000906C48006898
:1003900040F480306A49086000BF6948006800F492
:1003A000003000900198401C0190009818B9019805
:1003B000B0F5A06FF1D16248006800F4003010B1D0
:1003C0000120009001E0002000900098012843D116
:1003D0005C48006840F010005A4908600846006810
:1003E00020F0030008600846006840F00200086042
:1003F000534840685249486008464068486008468B
:10040000406840F4806048600846406820F47C10F2
:1004100048600846406840F4E810486008460068B4
:1004200040F08070086000BF4548006800F0007030
:100430000028F9D04248406820F003004049486055
:100440000846406840F00200486000BF3C484068F1
:1004500000F00C000828F9D10CBD10B5FFF792FF91
:1004600010BD10B53648006840F0010034490860FE
:1004700008464068344908403149486008460068E9
:10048000324908402E4908600846006820F4802060
:1004900008600846406820F4FE0048604FF41F00E2
:1004A0008860FFF7DAFF4FF000602949086010BD4F
:1004B00010B5002100200022214B5B6803F00C01E5
:1004C00021B1042906D0082928D107E0214B224C6C
:1004D000236027E01F4B204C236023E0184B5B6810
:1004E00003F47010164B5B6803F48032022303EBB5
:1004F000904022B9194B4343174C23600DE0104B39
:100500005B6803F4003323B1144B4343124C236064
:1005100003E0104B4343104C236003E00D4B0E4CA3
:10052000236000BF00BF064B5B68C3F303130C4C92
:10053000E15C094B1B68CB40074C236010BD0000F9
:1005400000100240002002400000FFF8FFFFF6FE0E
:1005500008ED00E000127A002000002000093D00B4
:10056000240000200948804709480047FEE7FEE7CD
:10057000FEE7FEE7FEE7FEE7FEE7FEE7FEE7FEE753
:1005800004480549054A064B70470000630400080B
:10059000ED000008D8190020D81F0020D81B00202B
:1005A000D81B002031490143314A1160704770B5B2
:1005B000002100230F22C47804B32D4C246804F4D6
:1005C000E064C4F5E064210AC1F10403CA40447840
:1005D00004FA03F18478144021430901254C06787C
:1005E000A155047804F01F050124AC4005786D1175
:1005F000AD0005F1E025C5F8004109E0047804F0FC
:100600001F050124AC401C4D0678761145F82640A4
:1006100070BD1A4A0A400243154B1B1F1A607047EF
:1006200039B1134A121D12680243114B1B1D1A6087
:1006300006E00F4A121D126882430D4B1B1D1A6003
:100640007047042808D14FF0E021096941F0040106
:100650004FF0E022116107E04FF0E021096921F03D
:1006600004014FF0E0221161704700000000FA051C
:100670000CED00E000E400E080E100E080FFFF1FFF
:10068000002044490860091D0860091D0860091D13
:10069000086041483F4914310860704700213D49D6
:1006A0008279002A3AD00A46126803689A430B46B8
:1006B0001A600A1D126803689A430B1D1A600279BA
:1006C00011440A6803681A430A60324A0832126801
:1006D00003689A432F4B08331A601A1D1268036887
:1006E0009A432C4B0C331A604279102A0ED11A1FF0
:1006F000126803681A43274B08331A601A1D1268E0
:1007000003681A43234B0C331A600DE021494279E8
:1007100011440A6803681A430A6005E0027911442B
:100720000A6803689A430A607047002101600171FA
:100730000C214171002181717047164910310968FF
:100740000143144A10321160704701460020114ADB
:10075000143212680A400AB1012000E000207047FC
:100760000C49143108607047014600200022094BF3
:100770001B6803EA0102074B14331B680B4013B1DB
:100780000AB1012000E000207047024914310860DE
:100790007047000000040140FFFF0F0010B5044641
:1007A000CC48844208D10121042000F02DFB002117
:1007B000042000F029FB46E0C748844208D101210B
:1007C000082000F021FB0021082000F01DFB3AE08A
:1007D000C248844208D10121102000F015FB0021FD
:1007E000102000F011FB2EE0BD48844208D1012109
:1007F000202000F009FB0021202000F005FB22E072
:10080000B848844208D10121402000F0FDFA0021BF
:10081000402000F0F9FA16E0B348844208D10121E3
:10082000802000F0F1FA0021802000F0EDFA0AE0CB
:10083000AE48844207D10121801500F0E5FA00217D
:10084000A01500F0E1FA10BD10B50121084600F036
:10085000DBFA0021012000F0D7FA10BD2DE9F041AC
:10086000024600250026002000230024002791F8DE
:1008700003C00CF00F0591F803C00CF0100CBCF194
:10088000000F03D091F802C04CEA050591F800C0B2
:10089000BCF1000F31D0146800202BE04FF0010CA8
:1008A0000CFA00F3B1F800C00CEA03069E4220D116
:1008B00083004FF00F0C0CFA03F7BC4305FA03FC5E
:1008C0004CEA040491F803C0BCF1280F06D14FF0A4
:1008D000010C0CFA00FCC2F814C00AE091F803C045
:1008E000BCF1480F05D14FF0010C0CFA00FCC2F826
:1008F00010C0401C0828D1D31460B1F800C0BCF16E
:10090000FF0F34DD546800202EE000F1080C4FF09A
:10091000010808FA0CF3B1F800C00CEA03069E4285
:1009200021D183004FF00F0C0CFA03F7BC4305FAFA
:1009300003FC4CEA040491F803C0BCF1280F05D174
:1009400000F1080C08FA0CF8C2F8148091F803C002
:10095000BCF1480F07D100F1080C4FF0010808FA6C
:100960000CF8C2F81080401C0828CED35460BDE8B3
:10097000F0814FF6FF710180022181700421C17066
:1009800070470246002093680B400BB1012000E045
:10099000002070470146886880B2704702460020F8
:1009A000D3680B400BB1012000E0002070470146E6
:1009B000C86880B2704701617047416170470AB1F1
:1009C000016100E041617047C16070474FF48032BF
:1009D0000A4382618161826182698269704702464D
:1009E0000020434B18684FF68073184040EA02100D
:1009F00008433F4B186070473E49C8617047F0B5E7
:100A00000A46002300240021002500F00046B6F12C
:100A1000004F02D1364EF16901E0354E7168C0F3E6
:100A2000034583B200F44016B6F5401F08D121F00B
:100A300070612F4E766826F070662D4F7E6012E052
:100A400000F48016B6F5801F06D1032606FA05F4D9
:100A5000A14341F0706106E0460D360103FA06F647
:100A6000B14341F0706122B1460D360103FA06F63A
:100A7000314300F00046B6F1004F02D11C4EF16147
:100A800001E01B4E7160F0BD30B500228B071C0FDA
:100A90000F2303FA04F2164B08338C1053F824305A
:100AA0009343134C08348D1044F8253023468C10A2
:100AB00053F824308C07240F00FA04F423430C4C21
:100AC00008348D1044F8253030BD0A49DC31086007
:100AD0007047000000080140000C01400010014078
:100AE0000014014000180140001C0140002001409A
:100AF0000000014000002042DF48006840F0010093
:100B0000DD49086008464068DC490840DA49486029
:100B100008460068DA490840D74908600846006876
:100B200020F4802008600846406820F4FE004860F9
:100B30004FF41F0088607047CF49096821F4803165
:100B4000CD4A11601146096821F480211160B0F589
:100B5000803F03D0B0F5802F0ED106E0C64909686A
:100B600041F48031C44A116007E0C349096841F487
:100B7000A021C14A116000E000BF00BF704710B55E
:100B800001460022002300204A11012A02D1BA4C5A
:100B9000236806E0022A02D1B74C236A01E0B64C72
:100BA000636A01F01F02012494401C400CB1012033
:100BB00000E0002010BD38B5002000900024002582
:100BC00000BF3120FFF7DBFF05460098401C009076
:100BD0000098B0F5A06F01D0002DF2D03120FFF7C2
:100BE000CEFF08B1012400E00024204638BD0146B4
:100BF0000020A14A106820F0F80040EAC10010600F
:100C00007047A04908607047024600209A4B586818
:100C100020F47C1042EA01031843974B5860704758
:100C200098490866704701460020934A506820F0B2
:100C300003000843506070478F48406800F00C0084
:100C40007047014600208C4A506820F0F0000843AD
:100C50005060704701460020874A506820F4E060E9
:100C600008435060704701460020834A506820F4D2
:100C7000605040EAC1005060704729B17E4A527A04
:100C800002437D4B5A7204E07B4A527A82437A4B8C
:100C90005A7270477B49D83108607047014600207E
:100CA000754A506820F44040084350607047002166
:100CB000714A20321170704A82F82010012802D047
:100CC00004280AD104E001216B4A2032117005E0AA
:100CD0000521694A2032117000E000BF00BF704753
:100CE0006949086070476449096A0143624A1162B0
:100CF0007047654944390860704730B500210022CB
:100D0000002400235C4D6D6805F00C0121B104291D
:100D100005D0082923D105E05C4D056022E05B4D3C
:100D200005601FE0544D6D6805F47012524D6D68FA
:100D300005F48034022505EB92421CB9544D55430D
:100D400005600BE04C4D6D6805F400351DB1504D4C
:100D50005543056002E04D4D5543056002E04B4DA3
:100D6000056000BF00BF444D6D6805F0F001090942
:100D7000484D6B5C0568DD4045603F4D6D6805F48E
:100D8000E061090A434D6B5C4568DD4085603A4D82
:100D90006D6805F46051C90A3E4D6B5C4568DD40E5
:100DA000C560354D6D6805F44041890B3A4D6B5C6B
:100DB000C568B5FBF3F5056130BD29B12E4A52690E
:100DC00002432D4B5A6104E02B4A526982432A4B5D
:100DD0005A61704729B1284A92690243264B9A61A9
:100DE00004E0254A92698243234B9A61704729B1F6
:100DF000214AD2690243204BDA6104E01E4AD269DB
:100E000082431D4BDA61704729B11B4AD268024305
:100E1000194BDA6004E0184AD2688243164BDA6054
:100E2000704729B1144A12690243134B1A6104E056
:100E3000114A12698243104B1A61704712494039B6
:100E4000086070470F49C86470470B49C871704704
:100E50000948406A40F0807007494862704701467F
:100E60000020054A92680A400AB1012000E00020F3
:100E70007047014988727047001002400000FFF877
:100E8000FFFFF6FE000042428004424200127A0058
:100E900000093D00340000204400002010B5044645
:100EA000FE48844208D10121C014FFF7ADFF0021A4
:100EB000E014FFF7A9FFC4E0B4F1804F08D101218D
:100EC0000846FFF7AEFF00210120FFF7AAFFB8E0B8
:100ED000F348844208D101210220FFF7A2FF00213C
:100EE0000220FFF79EFFACE0EE48844208D10121CA
:100EF0000420FFF796FF00210420FFF792FFA0E0F7
:100F0000E948844208D101210820FFF78AFF002127
:100F10000820FFF786FF94E0E448844208D10121CD
:100F20001020FFF77EFF00211020FFF77AFF88E0F6
:100F3000DF48844208D101212020FFF772FF002101
:100F40002020FFF76EFF7CE0DA48844208D10121BF
:100F50004014FFF759FF00216014FFF755FF70E0C0
:100F6000D548844209D10121C804FFF74DFF002173
:100F70004FF40020FFF748FF63E0D048844209D1D6
:100F800001210805FFF740FF00214FF48010FFF713
:100F90003BFF56E0CA48844209D101214805FFF7CA
:100FA00033FF00214FF40010FFF72EFF49E0C54842
:100FB000844208D101214020FFF733FF0021402067
:100FC000FFF72FFF3DE0C048844208D10121802077
:100FD000FFF727FF00218020FFF723FF31E0BB4808
:100FE000844208D101218015FFF71BFF0021A015C5
:100FF000FFF717FF25E0B648844209D10121080414
:10100000FFF702FF00214FF48030FFF7FDFE18E0EC
:10101000B048844209D101214804FFF7F5FE0021C0
:101020004FF40030FFF7F0FE0BE0AB48844208D1EC
:1010300001218804FFF7E8FE00214FF48020FFF72C
:10104000E3FE10BD00220288944B98420ED0994BCB
:1010500098420BD0B0F1804F08D0914B984205D008
:10106000904B984202D0904B984204D14FF68F7328
:101070001A404B881A438D4B984207D08C4B9842AC
:1010800004D04FF6FF431A40CB881A4302808B8866
:1010900083850B880385814B98420BD0854B984202
:1010A00008D08B4B984205D08A4B984202D08A4B8D
:1010B000984201D10B7A038601238382704770B571
:1010C000002400220023058C4FF6FE76354005846F
:1010D000028C8388048B4FF68F752C40B51E2C40F4
:1010E0000D882C43751E2A400D892A434D882A43BA
:1010F0006A4DA8420BD06F4DA84208D0744DA8424B
:1011000005D0744DA84202D0734DA84213D14FF6BA
:10111000F7752A404D892A434FF6FB752A408D8882
:101120002A434FF6FF652B404FF6FF552B408D8924
:101130002B43CD892B4383800483CD88858602840D
:1011400070BD70B5002400220023058C4FF6EF76A9
:1011500035400584028C8388048B48F6FF752C404B
:101160004FF6FF452C400D884FF6FF7606EA052521
:101170002C434FF6DF752A400D8906EA05152A43F0
:101180004D8806EA05152A43444DA84202D0494D30
:10119000A8421DD14FF67F752A404D894FF6FF7644
:1011A00006EA05152A434FF6BF752A408D8806EAE0
:1011B00005152A434FF6FF352B404FF2FF752B40A4
:1011C0008D8906EA85052B43CD8906EA85052B43E3
:1011D00083800483CD880587028470BD70B50024A8
:1011E00000220023058C4FF6FF6635400584028CF3
:1011F0008388848B4FF68F752C404FF6FC752C40FE
:101200000D882C434FF6FF552A400D894FF6FF7687
:1012100006EA05252A434D8806EA05252A431F4D7F
:10122000A84202D0234DA8421DD14FF2FF752A409B
:101230004D894FF6FF7606EA05252A434FF6FF351E
:101240002A408D8806EA05252A434EF6FF752B4075
:101250004DF6FF752B408D8906EA05152B43CD8988
:1012600006EA05152B4383808483CD888587028415
:1012700070BD70B5002200230024058C4EF6FF7669
:1012800035400584038C8488828B48F6FF752A409C
:101290004FF6FF452A400D8820E00000002C014059
:1012A0000004004000080040000C00400010004016
:1012B0000014004000340140004C01400050014047
:1012C0000054014000180040001C00400020004075
:1012D0000040014000440140004801404FF6FF76C5
:1012E00006EA05252A434DF6FF752B400D8906EACF
:1012F00005352B434D8806EA05352B43FA4DA842A8
:1013000002D0FA4DA84208D14BF6FF752C408D89CA
:101310004FF6FF7606EA85152C4384808283CD88BC
:10132000A0F84050038470BD828B4FF2FF331A4007
:101330008283828B4FF6FF7303EA01231A43828371
:101340007047F0B50C461546002200210026078C98
:101350004EF6FF7C07EA0C070784828B018C4FF660
:10136000FF7707EA043640F6FF473A404FF6FF772B
:1013700007EA05273A434FF6FF7707EA03373A4370
:10138000D94FB8420ED0D94FB8420BD0B0F1804FF0
:1013900008D0D74FB84205D0D64FB84202D0D64F6A
:1013A000B84206D14DF6FF77394046F480573943AD
:1013B00005E047F6FF57394044F4805739438283AC
:1013C0000184F0BD828B4FF6F3731A408283828BC7
:1013D0000A4382837047F0B50C461546002200216F
:1013E0000026078C4FF6FF6C07EA0C070784828BF8
:1013F000018C4FF6FF7707EA04264FF60C773A4048
:101400004FF6FF7707EA03172F433A43B64FB84228
:101410000ED0B64FB8420BD0B0F1804F08D0B44FC9
:10142000B84205D0B34FB84202D0B34FB84206D14C
:101430004FF6FF57394046F48077394305E04FF2C5
:10144000FF57394044F48077394382830184F0BDEB
:10145000028B4FF2FF331A400283028B4FF6FF7369
:1014600003EA01231A4302837047F0B50C46154680
:10147000002200210026078C4FF6EF7C07EA0C07BC
:101480000784028B018C4FF6FF7707EA041640F6BB
:10149000FF473A404FF6FF7707EA03373A434FF6E4
:1014A000FF7707EA05273A438F4FB8420ED08F4F98
:1014B000B8420BD0B0F1804F08D08D4FB84205D064
:1014C0008C4FB84202D08C4FB84206D14FF6DF772E
:1014D000394046F01007394305E04FF65F77394051
:1014E00044F01007394302830184F0BD028B4FF6AC
:1014F000F3731A400283028B0A4302837047F0B5EC
:101500000C46154600220021068C4FF6FE773E4021
:101510000684028B018C4FF60C7632407E1C06EA64
:1015200003162E433243704EB0420ED06F4EB0427F
:101530000BD0B0F1804F08D06D4EB04205D06D4E4B
:10154000B04202D06C4EB04206D14FF6FD7631402B
:1015500044F00106314305E04FF6F576314044F0A2
:101560000106314302830184F0BD70B505460C4687
:101570005D4885420ED05D4885420BD0B5F1804F65
:1015800008D05B48854205D05A48854202D05A4867
:10159000854200D100E000BF208850B92389A2888D
:1015A00061882846FFF7ABFFE1882846FFF79EFFDA
:1015B00025E0208804280AD12389A288618828464A
:1015C000FFF753FFE1882846FFF742FF17E0208826
:1015D00008280AD12389A28861882846FFF7FBFEE4
:1015E000E1882846FFF7EEFE09E02389A28861889A
:1015F0002846FFF7A6FEE1882846FFF795FE70BD56
:101600002DE9F04105460C4600260127608808B9FF
:10161000022600E00026A088012801D1022700E070
:1016200001272088A0B92389A28861882846FFF76E
:1016300066FFE1882846FFF759FF23893A4631467D
:101640002846FFF712FFE1882846FFF701FF13E065
:101650002389A28861882846FFF707FFE18828468A
:10166000FFF7F6FE23893A4631462846FFF747FF43
:10167000E1882846FFF73AFFBDE8F0810A884B88E9
:101680001A438B881A43CB881A430B891A434B8918
:101690001A438B891A43A0F8442070474FF6FF7114
:1016A000818000210180C18041800172704700214A
:1016B000018041808180C180018141818181C1811E
:1016C0007047002101804180012181800021C1807B
:1016D000018170470021018041808180C1800181AA
:1016E0004181818170470000002C0140003401409D
:1016F0000004004000080040000C004021B10288B6
:1017000042F00102028004E002884FF6FE731A40A4
:101710000280704731B1B0F8442042F40042A0F892
:10172000442005E0B0F84420C2F30E02A0F84420A3
:1017300070471AB183890B43838102E083898B430D
:10174000838170478182704741EA0203A0F84830E4
:1017500070471AB183890B43838102E083898B43ED
:101760008381704701894FF6F872114001817047FB
:101770000A46002101894FF68F73194011430181F8
:10178000704730B504460D4629462046FFF7F0FF66
:10179000208940F00700208130BD2DE9F04104464A
:1017A0000D4616461F46602D06D13B4601223146A6
:1017B0002046FFF75AFE05E03B460122314620460F
:1017C000FFF79DFE29462046FFF7D2FF208940F013
:1017D00007002081BDE8F08130B50C460021018969
:1017E000C9B24FF6FF7505EA032515432543294382
:1017F000018130BD2DE9F04105460E461746984659
:10180000002443463A4631462846FFF7E5FF2C8937
:101810004FF6F870044044F007044FF68F70044010
:1018200044F070042C81BDE8F081F0B504460D460B
:1018300016461F463B46324629462046FFF7CCFF58
:10184000208940F480402081F0BD0185828270476C
:101850000A46002101884FF68F7319401143018019
:101860007047F0B50C4615461E46002100220023A5
:101870000189028B038C4FF6F877394021434FF6EC
:10188000FC473A4040F201173A434FF6DD773B40C0
:101890004FF6FF7707EA06172F433B430181028388
:1018A0000384F0BD0A460021018B4FF68F73194067
:1018B0001143018370470A460021018B48F6FF73EC
:1018C00019404FF6FF7303EA02231943018370475F
:1018D0000A460021818B4FF68F7319401143818393
:1018E00070470A460021818B48F6FF7319404FF676
:1018F000FF7303EA022319438183704721B10288F1
:1019000042F08002028004E002884FF67F731A40A2
:101910000280704721B1828842F00402828004E094
:1019200082884FF6FB731A408280704721B182880B
:1019300042F00802828004E082884FF6F7731A4072
:101940008280704721B1828842F00102828004E0E7
:1019500082884FF6FE731A40828070470A46002143
:10196000018B4FF6F77319401143018370470A4604
:101970000021018B4FF2FF7319404FF6FF7303EA0A
:1019800002231943018370470A460021818B4FF6D9
:10199000F77319401143818370470A460021818BF8
:1019A0004FF2FF7319404FF6FF7303EA0223194306
:1019B000818370470A460021018B4FF6FB73194063
:1019C0001143018370470A460021018B4FF6FF3314
:1019D00019404FF6FF7303EA02231943018370474E
:1019E0000A460021818B4FF6FB7319401143818316
:1019F00070470A460021818B4FF6FF3319404FF69E
:101A0000FF7303EA02231943818370470A460021CA
:101A1000018B4FF67F7319401143018370470A46CB
:101A20000021018BC1F30E014FF6FF7303EA02237D
:101A30001943018370470A460021818B4FF67F735B
:101A400019401143818370470A460021818BC1F3FD
:101A50000E014FF6FF7303EA022319438183704797
:101A60000A460021018C4FF6FD7319401143018491
:101A700070470A460021018C4FF6F7731940114355
:101A8000018470470A460021018C4FF6DF7319402C
:101A90004FF6FF7303EA02131943018470470A46A5
:101AA0000021018C4FF67F7319404FF6FF7303EA54
:101AB00002131943018470470A460021018C4FF636
:101AC000FF5319404FF6FF7303EA022319430184C1
:101AD00070470A460021018C4FF2FF7319404FF600
:101AE000FF7303EA02231943018470470A46002169
:101AF000018C4DF6FF7319404FF6FF7303EA023372
:101B000019430184704730B5002301248C40A3B2EF
:101B1000048C9C430484048C02FA01F5ADB22C437E
:101B2000048430BD30B5002304248C40A3B2048C5F
:101B30009C430484048C02FA01F5ADB22C43048466
:101B400030BD70B50346002000241846183001252A
:101B50008D40ACB21D8CA5431D8409B1082909D163
:101B600000EB6100056825F0700505600568154308
:101B700005600EE00D1FC5F34E052844056825F4E9
:101B8000E045056005684FF6FF7606EA0226354314
:101B9000056070BD21B1028842F00202028004E0BB
:101BA00002884FF6FD731A400280704721B1028807
:101BB00042F00402028004E002884FF6FB731A40F0
:101BC0000280704721B1828842F08002828004E066
:101BD00082884FF67F731A408280704702884FF6E2
:101BE000F7731A40028002880A4302807047828895
:101BF0004FF68F731A40828082880A438280704732
:101C000002894FF6F8731A40028102890A43028161
:101C1000704702894FF67F731A40028102890A4396
:101C20000281704781847047818570478186704743
:101C30000187704781877047A0F84010704702887D
:101C40004FF6FF431A40028002880A430280704721
:101C50000146888E70470146088F70470146888F7D
:101C600070470146B1F8400070470146888C7047C4
:101C70000146088D704702460020138A0B400BB1C5
:101C8000012000E000207047CA430282704730B54F
:101C90000246002000230024158A05EA01039589E5
:101CA00005EA010413B10CB1012000E0002030BDB1
:101CB000CA4302827047000010B50446FB488442C4
:101CC00009D101218803FFF79FF800214FF48040DC
:101CD000FFF79AF832E0F648844209D1012148041E
:101CE000FFF79FF800214FF40030FFF79AF825E046
:101CF000F048844209D101218804FFF792F80021BD
:101D00004FF48020FFF78DF818E0EB48844209D1AA
:101D10000121C804FFF785F800214FF40020FFF7E8
:101D200080F80BE0E548844208D101210805FFF75F
:101D300078F800214FF48010FFF773F810BD2DE9FB
:101D4000F04786B005460E460024A24600BFA146D5
:101D50000027B08900B100BF2F462C8A4CF6FF70D7
:101D60000440F08804432C82AC894EF6F310044002
:101D7000B08831890843718908430443AC81AC8A37
:101D80004FF6FF400440B0890443AC8201A8FEF73F
:101D9000B4FFC648874202D1DDF810A001E0DDF8AB
:101DA0000CA0A88900F4004040B10AEBCA0000EB87
:101DB0000A1031684900B0FBF1F807E00AEBCA00ED
:101DC00000EB0A1031688900B0FBF1F86420B8FB21
:101DD000F0F004012009642101FB1089A88900F4B6
:101DE000004040B1322000EBC900B0FBF1F000F040
:101DF0000700044308E0322000EB09106421B0FB27
:101E0000F1F000F00F0004432C8106B0BDE8F0872C
:101E10004FF41651016000218180C18001810C21A5
:101E2000418100218181704710B502460020108A4F
:101E30004FF2FF0318400B884C8823438C882343C0
:101E4000CC8823431843108210BD002101804180BB
:101E50008180C180704721B1828942F40052828121
:101E600004E082894DF6FF731A4082817047F0B515
:101E70000346002400260025002040F66A17B942D8
:101E800000D100BF1846C1F3421401F01F0601271C
:101E900007FA06F5012C01D10C3004E0022C01D127
:101EA000103000E014301AB107682F43076002E0D9
:101EB0000768AF430760F0BD1AB1838A0B43838282
:101EC00002E0838A8B4383827047028A4FF6F07365
:101ED0001A400282028A0A430282704782894FF2C4
:101EE000FF731A40828182890A438281704721B13F
:101EF000828942F00202828104E082894FF6FD73FA
:101F00001A4082817047028A4FF6DF731A400282BC
:101F1000028A0A430282704721B1028A42F4804257
:101F2000028204E0028A4BF6FF731A400282704775
:101F3000C1F308028280704701468888C0F3080018
:101F40007047818941F0010181817047028BD2B2D3
:101F50000283028B42EA012202837047028B02F461
:101F60007F420283028B0A430283704721B1828A37
:101F700042F02002828204E0828A4FF6DF731A4028
:101F80008282704721B1828A42F01002828204E08C
:101F9000828A4FF6EF731A408282704721B1828A9B
:101FA00042F00802828204E0828A4FF6F7731A40F8
:101FB0008282704721B1828942F40042828103E02B
:101FC0008289C2F30E028281704721B1828A42F473
:101FD0000062828204E0828A4FF2FF731A4082829A
:101FE0007047828A4FF6FB731A408282828A0A43C4
:101FF0008282704721B1828A42F00202828204E02A
:10200000828A4FF6FD731A40828270470246002092
:10201000B1F5007F00D100BF13880B400BB1012048
:1020200000E00020704701F40072B2F5007F00D19B
:1020300000BFCA430280704770B5024600240023E7
:102040000025002040F66A16B14200D100BFC1F35E
:10205000421501F01F03012606FA03F3012D02D1F8
:102060009689334006E0022D02D1168A334001E002
:10207000968A33400C12012606FA04F4168834407E
:1020800013B10CB1012000E0002070BD10B500229A
:10209000002340F66A14A14200D100BF0A120124B5
:1020A0009440A3B2DC43048010BD0000003801401E
:1020B0000044004000480040004C004000500040F8
:1020C00010B56FF00400FEF7BCFA2E4800682E49E8
:1020D000B0FBF1F02D4908700846007800EB400194
:1020E000C1EBC0104FF6FF7101EAC000284908801B
:1020F00010BD0146254A12784A434FF0E0235A6149
:1021000000229A611A46126942F001021A6100BF68
:102110004FF0E022106900F001021AB100F48032A1
:10212000002AF5D04FF0E022126922F001024FF0B0
:10213000E0231A6100229A6170470146144A12880E
:102140004A434FF0E0235A6100229A611A4612690D
:1021500042F001021A6100BF4FF0E022106900F066
:1021600001021AB100F48032002AF5D04FF0E022CB
:10217000126922F001024FF0E0231A6100229A61F5
:10218000704700002000002000127A004800002064
:102190004A000020014600BF704700BF494A12882C
:1021A00002F04002002AF9D0C2B2464B1B1D1A8031
:1021B000704710B586B00446012144F20400FEF7D2
:1021C00009FE4FF40070ADF8140003208DF81600DE
:1021D00018208DF8170005A93B48FEF73FFB4FF488
:1021E0008060ADF8140004208DF8170005A936486A
:1021F000FEF734FB25208DF8000003208DF8010048
:102200008DF8020001208DF803006846FEF7CFF933
:1022100001940020ADF80800ADF80A00ADF80C00FC
:10222000ADF810000C20ADF80E0001A92548FFF70D
:1022300086FD012240F225512248FFF718FE0121B8
:102240002048FFF708FE06B010BD10B540F225513A
:102250001C48FFF7F1FE10B31A48FFF76DFEC4B239
:102260001A48008800F40040C8B91848008800F4F3
:10227000804060B10A2C03D000201449088020E07F
:102280001248008840F400401049088019E00D2CE5
:1022900006D10E48008840F480400C49088010E0C8
:1022A0000A480088C0F30D0009490C54074800880B
:1022B000401C0649088008460088C72801DD002028
:1022C000088010BD00380140000801405000002087
:1022D000881300207FB505460C4601210846FEF70D
:1022E00086FDADF80850ADF804400020ADF80A00B6
:1022F000ADF8060001A94FF08040FEF7A3FE0122D1
:1023000041218807FFF715FA01218807FFF7F6F941
:102310001C208DF8000000208DF8010003208DF8AE
:10232000020001208DF803006846FEF740F97FBDEA
:1023300010B501218807FFF7AAFC012804D1054A3E
:102340000549064800F04AFA01218807FFF7B0FC6A
:1023500010BD000008000020040000200000002044
:10236000014691F90020002A01DD00201EE091F9CC
:102370000020002A01DA042018E091F90120002A47
:1023800001DD012012E091F90120002A01DA052087
:102390000CE091F90220002A01DD022006E091F90B
:1023A0000220002A01DA062000E00720704770B5FD
:1023B00005462846FFF7D4FF0446E81CFFF7D0FF88
:1023C00044EAC00084B2A81DFFF7CAFF44EA8010A7
:1023D00084B2204670BD70B588B002A905A802F08D
:1023E00024FC0446072C3FD101A801F093FE059878
:1023F00006F0CEFD0646019906F02AFE054606F0D7
:102400008BFD0590069806F0C3FD0646019906F07F
:102410001FFE054606F080FD0690079806F0B8FD01
:102420000646019906F014FE054606F075FD079074
:1024300005A802F00AFF684601F089FEBDF8001009
:10244000029848430290BDF8001003984843039057
:10245000BDF8001004984843049002A802F088FFD9
:10246000FEA004F041F900BF08B070BD2DE9F043B3
:1024700004460D46DDE907670021012041E0DFF851
:1024800000C43CF81080A0F1010CDFF8F49329F8A7
:102490001C8009F1160C3CF81090A0F1010CDFF83B
:1024A000E08308F1160828F81C9008F1160C3CF897
:1024B0001090A0F1010C08F1160828F81C9008F102
:1024C000160C3CF81090A0F1010C08F1160828F841
:1024D0001C9008F1160C3CF81090A0F1010C08F1CA
:1024E000160828F81C9008F1160C3CF81090A0F182
:1024F000010C08F1160828F81C9000F1010C0CF0F2
:10250000FF000A28BBDBDFF878C3ACF81240ACF858
:102510002850ACF83E20ACF85430ACF86A60ACF807
:1025200080700021002008E0DFF854C33CF910C09F
:10253000614400F1010C0CF0FF000A28F4DB4FF0BD
:102540000A0C91FBFCFC0FFA8CFCDFF83483A8F832
:1025500014C0002100200AE0DFF824C30CF1160C9F
:102560003CF910C0614400F1010C0CF0FF000A2896
:10257000F2DB4FF00A0C91FBFCFC0FFA8CF8DFF851
:1025800000C3ACF82A80002100200AE0DFF8F0C286
:102590000CF12C0C3CF910C0614400F1010C0CF062
:1025A000FF000A28F2DB4FF00A0C91FBFCFC0FFA4B
:1025B0008CF8DFF8CCC2ACF84080002100200AE0A3
:1025C000DFF8BCC20CF1420C3CF910C0614400F1D0
:1025D000010C0CF0FF000A28F2DB4FF00A0C91FB13
:1025E000FCFC0FFA8CF8DFF898C2ACF8568000219A
:1025F00000200AE0DFF888C20CF1580C3CF910C04A
:10260000614400F1010C0CF0FF000A28F2DB4FF0EE
:102610000A0C91FBFCFC0FFA8CF8DFF864C2ACF8F2
:102620006C80002100200AE0DFF854C20CF16E0C2F
:102630003CF910C0614400F1010C0CF0FF000A28C5
:10264000F2DB4FF00A0C91FBFCFC0FFA8CF8DFF880
:1026500030C2ACF88280BDE8F08338B5044603236D
:1026600002226B21D020009400F0B7FD38BD38B5B0
:102670000446022304221B21D020009400F0ADFD6B
:1026800038BD38B50446022304221C21D020009412
:1026900000F0A3FD38BD10B50446234606226B2189
:1026A000D02000F0CFFD10BD10B5764B0122752172
:1026B000D02000F021FD7348007810BD10B5FFF761
:1026C000F3FF682801D1012010BD0020FCE710B500
:1026D0000446234605226A21D02000F0B3FD10BD38
:1026E00010B50446234601223721D02000F0AAFD70
:1026F00010BD10B50220FFF7B0FF0320FFF7B7FFB2
:102700000020FFF7BEFF0020FFF7C5FF0020FFF706
:10271000DEFF0020FFF7E4FF10BD38B50020009079
:102720006B4601227521682000F088FC56A003F05A
:10273000DBFF9DF8000068280ED000BF5B480068F2
:1027400000F4E0605A490843001D58490860BFF38F
:102750004F8F00BF00BFFEE701F0E9F900283CD130
:10276000782000F04CFE10B947A003F0BDFF7820A0
:1027700001F02CF810B94FA003F0B6FFC82001F00B
:1027800006F910B955A003F0AFFF02F0C3FC10B971
:102790005CA003F0A9FF6848FFF709FE044602F0B9
:1027A000C3FC10B965A003F09FFF40F2731003F063
:1027B000FCF810B96BA003F097FFC82002F06EFE82
:1027C00010B972A003F090FFFFF705FE012002F0A0
:1027D000E7F910B976A003F087FF38BD2DE9F04F77
:1027E00091B00446894692460EA87A490FAB0AAAD0
:1027F000CDE900107849794803F036FA7548008829
:1028000000F48070002827D00A9806F0C1FB054626
:102810004FF09D4106F08AFA714908600B9806F066
:10282000B7FB05464FF09D4106F080FA6D49086000
:102830000C9806F0ADFB05464FF09D4106F076FA88
:10284000694908600D9806F0A3FB05464FF09D41CD
:1028500006F06CFA6549CBE0A5E10000736574747D
:10286000696E67206269617320737563636573665F
:10287000756C6C79202E2E2E2E2E2E0D0A00000047
:102880005E140020501400206D70755F7365745FD6
:1028900073656E736F7220636F6D706C6574652005
:1028A0002E2E2E2E2E2E0D0A000000000CED00E024
:1028B0000000FA056D70755F636F6E66696775720B
:1028C000655F6669666F20636F6D706C6574652007
:1028D0002E2E2E2E2E2E0D0A000000006D70755F1C
:1028E0007365745F73616D706C655F726174652090
:1028F000636F6D706C657465202E2E2E2E2E2E0D3E
:102900000A000000646D705F6C6F61645F6D6F74CE
:10291000696F6E5F6472697665725F6669726D7702
:1029200061726520636F6D706C657465202E2E2E4C
:102930002E2E2E0D0A00000074000020646D705FC2
:102940007365745F6F7269656E746174696F6E2010
:10295000636F6D706C657465202E2E2E2E2E2E0DDD
:102960000A000000646D705F656E61626C655F6691
:1029700065617475726520636F6D706C6574652038
:102980002E2E2E2E2E2E0D0A00000000646D705F7C
:102990007365745F6669666F5F7261746520636FEB
:1029A0006D706C657465202E2E2E2E2E2E0D0A0055
:1029B0006D70755F7365745F646D705F737461745F
:1029C0006520636F6D706C657465202E2E2E2E2E23
:1029D0002E0D0A00600000205A0000205400002044
:1029E00064000020680000206C00002070000020BF
:1029F0000860D44801684FF0804006F029FB05903C
:102A0000D1480168059806F023FB8346CF4801684A
:102A10004FF0404006F01CFB0590CD48016805983A
:102A200006F016FB5946069006F012F9079006F0DC
:102A3000E3F8CDE9080105F087F807464FF0663264
:102A4000C44B05F0FFFD054605F0C2FB2060BE4803
:102A500001684FF0804006F0FBFA0290BA48016826
:102A6000029806F0F5FA8346B84801684FF04040F6
:102A700006F0EEFA0290B5480168029806F0E8FA0E
:102A80005946039006F0E2FB80464FF07E5106F077
:102A9000DFF8074606F0B0F8CDE90601A94801685D
:102AA0004FF0804006F0D4FA0390A84801680398DC
:102AB00006F0CEFA8046A44801684FF0804006F048
:102AC000C7FA0390A2480168039806F0C1FA83464A
:102AD000414606F0BDF8074606F08EF8CDE9040140
:102AE000DDE9062305F078FA4FF06632994BCDE91F
:102AF000080105F0A7FD054605F06AFBC9F80000CE
:102B000093480168006806F0A3FA04908E480168B3
:102B1000006806F09DFA02908C480168006806F093
:102B200097FA019087480168006806F091FA0090D2
:102B3000019906F08DF88346029906F087FB039011
:102B4000049906F083FB059006F056F805460E46FC
:102B50007F4801687B48006806F07AFA04907A485A
:102B600001687A48006806F073FA0390049906F049
:102B70006FF84FF08041059006F06AFA834606F040
:102B80003BF82A463346CDE9060105F025FA4FF019
:102B90006632704BCDE9080105F054FD074605F09B
:102BA00017FBCAF8000011B0BDE8F08F2DE9F05F07
:102BB0004221D02000F07DFA05464121D02000F0CE
:102BC00078FA05EB0024204606F0E2F982464FF041
:102BD0008E41504606F008FB05D24FF08F4150461B
:102BE00006F034FB82465C49504606F09FF8834667
:102BF00006F002F88046594A594B05F01BFB064681
:102C00000022584B05F01EFD044605F0E1FA82460D
:102C1000504606F081F9BDE8F09F1FB50121084636
:102C2000FEF7D8F801210820FEF7D4F82020ADF8EF
:102C30000C0048208DF80F0003A94B48FDF70EFE4D
:102C400005210120FDF720FF2020019000208DF8B4
:102C500008000C208DF8090001208DF80A0001A859
:102C6000FDF71CFD17208DF8000002208DF80100F3
:102C700001208DF802008DF803006846FDF797FCEF
:102C80001FBD2DE9F04106460F4614461D4600F0D3
:102C900089F8002141EA4601C8B200F03EF900F08F
:102CA000CDF820B100F0ABF80120BDE8F081384646
:102CB00000F033F900F0C2F800F074F8012101EBE4
:102CC0004601C8B200F029F900F0B8F80DE0012C77
:102CD00004D1002000F052F9287003E0012000F038
:102CE0004DF92870601EC4B26D1C002CEFD100F0AD
:102CF00086F80020D9E72DE9FC4104460D4616462A
:102D00006B4606223B216820FFF7BBFF0746BFB991
:102D10009DF801009DF8001040EA012000B22080DB
:102D20009DF803009DF8021040EA012000B22880BF
:102D30009DF805009DF8041040EA012000B23080A3
:102D4000BDE8FC81640000206C00002068000020C9
:102D50007000002066A64C400000AA43A4703D0A03
:102D6000D743424000002440000C014010B502202F
:102D7000FFF7BFF910BD08B501210820FEF72AF8BA
:102D8000C020ADF8000010208DF8030003208DF85E
:102D900002006946FC48FDF761FDC021FA48FDF7D5
:102DA0000AFE08BD10B5F848006820F07040F649EA
:102DB00008600846006840F0405008600120F34970
:102DC0000860F348D0F81C0108B9002010BD0120AC
:102DD000EE49091F0860FFF7C9FF0020EC49C1F860
:102DE0009C01EA488038006808B10020EEE7FFF750
:102DF000BDFF0020E549091F08600120E6E710B586
:102E0000E148006820F07040DF490860084600682B
:102E100040F0405008600020DC49091F0860DC4990
:102E2000C1F89C01FFF7A2FF0120D849091F0860E3
:102E3000D749C1F89C01FFF799FF10BD10B50024D8
:102E4000D148006820F07040CF490860084600680B
:102E500040F0004008600120CC490860FFF786FF81
:102E60000120CB49C1F89801FFF780FF09E0601C01
:102E7000C4B2642C03DDFFF7C2FF002010BDFFF7D2
:102E800075FFC248803800680028F0D1BF49091F8B
:102E900008600120F2E710B50020BC49091F086056
:102EA000B948006820F07040B749086008460068DB
:102EB00040F0405008600020B549C1F89C01FFF780
:102EC00055FF0120B149091F0860FFF74FFF00209F
:102ED000AF49C1F8980110BD10B50020AB49091FDA
:102EE0000860A948006820F07040A74908600846BB
:102EF000006840F0405008600120A549C1F89C01DD
:102F0000FFF734FF0120A149091F0860FFF72EFFDA
:102F100000209F49C1F8980110BD70B504469A4839
:102F2000006820F07040984908600846006840F04A
:102F30004050086000209549091F086000251AE0EC
:102F4000E00918B101209149086002E000208F4992
:102F500008606006040EFFF709FF01208B49091F76
:102F60000860FFF703FF00208949C1F89801FFF7C7
:102F7000FDFE681CC5B2082DE2DB70BD70B50546CC
:102F800000248148006820F070407F4908600846AE
:102F9000006840F000400860002615E000207B49F2
:102FA000091F0860FFF7E2FE01207949C1F8980186
:102FB0006006040E75488038006808B1601CC4B211
:102FC000FFF7D4FE701CC6B2082EE7DB15B9FFF779
:102FD00083FF01E0FFF75FFF204670BD2DE9F04160
:102FE00005460E4617469846FFF7DCFE10B901204D
:102FF000BDE8F0816906080EFFF78FFFFFF71EFF9F
:1030000018B9FFF7FCFE0120F2E73046FFF785FF15
:10301000FFF714FF00240BE018F80400FFF77DFF12
:10302000FFF70CFF18B9FFF7EAFE0020E0E7641C89
:10303000BC42F1DBFFF7E3FE0020D9E72DE9F041C8
:1030400006460F4614461D46FFF7ACFE10B9012098
:10305000BDE8F0817106080EFFF75FFFFFF7EEFE97
:1030600018B9FFF7CCFE0120F2E73846FFF755FF0D
:10307000FFF7E4FEFFF796FE012101EB4601C8B21F
:10308000FFF74BFFFFF7DAFE0DE0012C04D1002023
:10309000FFF774FF287003E00120FFF76FFF28702F
:1030A0006D1C601EC4B2002CEFD1FFF7A8FE0020FB
:1030B000CEE770B505460E460024FFF773FE28469E
:1030C000FFF72BFF641CFFF7B9FE3046FFF725FF23
:1030D000641CFFF7B3FEFFF765FE691CC8B2FFF77B
:1030E0001CFF641CFFF7AAFE0020FFF747FF044601
:1030F000FFF785FE204670BD2DE9F0410746884662
:1031000015461E460024FFF74DFE3846FFF705FF23
:10311000FFF794FE4046FFF700FFFFF78FFEFFF733
:1031200041FE791CC8B2FFF7F8FEFFF787FE00BF2B
:103130000DE0681EA04204D00120FFF71FFF3055AC
:1031400003E00020FFF71AFF3055601CC4B2AC4208
:10315000EFDBFFF754FE2046BDE8F0812DE9F0419A
:1031600080460D4616461F460024FFF71BFE4046CC
:10317000FFF7D3FEFFF762FE2846FFF7CEFEFFF70C
:103180005DFE00BF0DE00000000C01409C8121426B
:1031900000802142385DFFF7C0FEFFF74FFE601C44
:1031A000C4B2B442F6DBFFF72AFE0120BDE8F0818D
:1031B00070B505460E46144631462846FFF779FF9E
:1031C0002070012070BD37B504460D4602AB0122C8
:1031D00029462046FFF7C2FF3EBD2DE9F8430746CA
:1031E000884614461D46089E6A4641463846FFF703
:1031F000DFFF28B3601CFF2101FA00F0C4F10801D1
:103200002944491EFF220A41104300F0FF09C5F17D
:10321000080006FA00F0C6B2C4F1070006419DF8A6
:10322000000000EA090000909DF800003043009083
:103230009DF8002041463846FFF7C5FFBDE8F883FA
:103240000020FBE7F8B506460F4614461D466A46C1
:1032500039463046FFF7ACFF2DB10120A0409DF864
:103260000010084305E00120A0409DF8001021EA6D
:103270000000C0B200909DF8002039463046FFF7AC
:10328000A2FFF8BD38B50446FB4890F82400C0B151
:1032900014B10220009001E000200090F64A12686C
:1032A000D17BF54A526810786B460122FFF796FEF3
:1032B00010B14FF0FF3038BD9DF80010EE4841745A
:1032C00023E0ED48807A10B94FF0FF30F3E724B1E6
:1032D000E948407C08B10020EDE714B101200090DE
:1032E00001E000200090E44A1268D17BE24A526873
:1032F00010786B460122FFF771FE10B14FF0FF30DE
:10330000D9E79DF80010DC4841740020D3E738B5B8
:10331000002419E0D8480068C07AA04204D0D648FA
:103320000068407DA04200D10CE0D349496808788C
:103330006B4601222146FFF781FE10B14FF0FF30AE
:1033400038BD00BF601CC4B2CB4840680079A042C1
:10335000E0DC0020F4E770B504460D46C64800687E
:10336000C07AA04204D0C4480068407DA04202D187
:103370004FF0FF3070BDC04840680079A04202DCC9
:103380004FF0FF30F6E7BC49496808782B46012228
:103390002146FFF753FEEDE738B50446B64890F8EE
:1033A0002300A04201D1002038BD14B1302000908C
:1033B00001E000200090B048807C20B19DF8000022
:1033C00040F002000090AC4890F8220020B19DF837
:1033D000000040F080000090A74A1268117DA64AC4
:1033E000526810786B460122FFF7F8FD10B14FF0DC
:1033F000FF30D9E7A04880F823400020D4E738B553
:10340000044604F0700010B10120009005E014B1F2
:103410000020009001E040200090974A1268917CC3
:10342000954A526810786B460122FFF7D7FD20B10C
:10343000002191488172481E38BD9DF8000020F09F
:1034400040018D4801730020009004F0400020B935
:103450009DF8000040F00400009004F0200020B926
:103460009DF8000040F00200009004F0100020B928
:103470009DF8000040F00100009004F0080020B921
:103480009DF8000040F0380000907B4A1268D17C23
:10349000794A526810786B460122FFF79FFD20B1F0
:1034A000002175488172481EC6E724B1082C02D05D
:1034B0000020FFF771FF70488472002101753220EF
:1034C000FEF73BFE0020B7E738B504466A48807C2B
:1034D000A04201D1002038BD002C46D0664A1268B7
:1034E0001179654A526810786B460122FFF7A6FDF4
:1034F00010B14FF0FF30EEE79DF8000020F0200003
:1035000000905D4A126811795B4A526810786B46E8
:103510000122FFF763FD10B14FF0FF30DBE703201E
:10352000FEF70BFE02200090534890F8220020B1D5
:103530009DF8000040F0800000904F4890F8230074
:1035400020B19DF8000040F0300000904A4A126817
:10355000117D494A526810786B460122FFF73EFD03
:10356000002851D04FF0FF30B5E7434A1268117977
:10357000414A526810786B460122FFF75FFD10B197
:103580004FF0FF30A7E73C48807A00F0010028B1F7
:103590009DF8000040F02000009004E09DF800003D
:1035A00020F020000090344A12681179324A5268A3
:1035B00010786B460122FFF711FD10B14FF0FF307C
:1035C00089E70320FEF7B9FD2B4890F8220010B1DF
:1035D0008020009001E000200090274890F8230010
:1035E00020B19DF8000040F030000090224A12689F
:1035F000117D214A526810786B460122FFF7EEFCDC
:1036000010B14FF0FF3066E71B488474002062E77A
:1036100008B51948807A10B94FF0FF3008BD002076
:103620000090154A1268D17B134A526810786B4695
:103630000122FFF7D3FC10B14FF0FF30EEE70E4A46
:10364000126851790C4A526810786B460122FFF7D4
:10365000C5FC10B14FF0FF30E0E7074A126811795E
:10366000054A526810786B460122FFF7B7FC28B173
:103670004FF0FF30D2E7000084000020F74890F8B8
:103680002400002850D00C200090F44A12681179D0
:10369000F24A526810786B460122FFF79FFC10B186
:1036A0004FF0FF30BAE7C0200090EC48807A00F07D
:1036B000010020B19DF8000040F020000090E74A92
:1036C00012681179E54A526810786B460122FFF7BB
:1036D00085FC10B14FF0FF30A0E7E048407C10B10E
:1036E0000220009001E000200090DC4A1268D17BAB
:1036F000DA4A526810786B460122FFF76FFC10B16E
:103700004FF0FF308AE700200090D44A12685179C8
:10371000D24A526810786B460122FFF75FFC0028FE
:1037200052D04FF0FF3079E704200090CB4A126866
:103730001179CA4A526810786B460122FFF74EFC95
:1037400010B14FF0FF3069E7C448807C20B9C3480E
:10375000807A00F0010010B94020009001E0602064
:103760000090BE4A12681179BC4A526810786B46C4
:103770000122FFF733FC10B14FF0FF304EE7B7489E
:10378000407C10B10120009001E000200090B34A7D
:103790001268D17BB14A526810786B460122FFF75C
:1037A0001DFC10B14FF0FF3038E7AC4A1268517978
:1037B000AA4A52681078A94B10330122FFF70EFC79
:1037C00010B14FF0FF3029E7002027E770B504461D
:1037D000002624F00104A14890F8240008B100203C
:1037E00070BD9E48807A10B94FF0FF30F8E79B48D3
:1037F000057C807A2040994908740846007CA042E4
:1038000002D04FF0FF3600E0002614B99348007D47
:1038100018B10120FFF736FD02E00020FFF732FD6E
:103820003CB1FFF7F5FE20B18C4805744FF0FF3036
:10383000D6E73046D4E738B504468848807A10B9D0
:103840004FF0FF3038BDBC2C02DB0120009015E0AA
:10385000622C02DB0220009010E02A2C02DB032005
:1038600000900BE0142C02DB0420009006E00A2CF0
:1038700002DB0520009001E0062000907748C07A26
:103880009DF80010884201D10020DBE7734A1268DE
:103890009178724A526810786B460122FFF79EFBBE
:1038A00010B14FF0FF30CDE79DF800106B48C172AA
:1038B0000020C7E738B50446282C02DD4FF0FF3062
:1038C00038BDDCB90020FFF767FD00208DF800004F
:1038D00007208DF80100614A1268917C5F4A5268A6
:1038E00010786B460222FFF779FB10B14FF0FF30E2
:1038F000E6E70021594801750020E1E70120FFF7C4
:103900004BFD20208DF80000012C06D100208DF801
:1039100001000520FFF78FFF17E0052C06DC0120D2
:103920008DF801000520FFF786FF0EE0142C06DC61
:1039300002208DF801000A20FFF77DFF05E003203B
:103940008DF801001420FFF776FF9DF80100072194
:1039500001EB8010C0B28DF80100404A1268917CE2
:103960003E4A526810786B460222FFF737FB10B1CF
:103970004FF0FF30A4E7082138488172002101731D
:10398000012101750020FFF721FF002098E738B5DD
:1039900004463248807A10B94FF0FF3038BD2F48C6
:1039A00090F8240010B14FF0FF30F7E72B48007D6E
:1039B00050B134B1282C04DCE0B2FFF77BFF0020CB
:1039C000ECE70020FFF776FF042C01DA042404E082
:1039D000B4F57A7F01DD4FF47A744FF47A7090FB7E
:1039E000F4F0401EC0B200901C4A126851781B4A85
:1039F000526810786B460122FFF7F0FA10B14FF0D1
:103A0000FF30CBE79DF80000401C4FF47A7191FB2A
:103A1000F0F081B21148C1810146C9894810FFF711
:103A20000AFF0020BAE738B504460C48807A10B97E
:103A30004FF0FF3038BD022C06D0042C07D0082CE4
:103A400008D0102C0FD10BE0002000900EE00820D1
:103A500000900BE01020009008E00000840000209F
:103A60001820009002E04FF0FF30E3E700BFF94874
:103A7000407A9DF80010B0EBE10F01D10020D9E7AA
:103A8000F44A1268D179F34A526810786B460122E1
:103A9000FFF7A4FA10B14FF0FF30CBE79DF800001C
:103AA000C110EC4841720020C4E738B50446E9482B
:103AB000807A10B94FF0FF3038BDFA2C09D0B4F538
:103AC000FA7F09D0B4F57A7F09D0B4F5FA6F0CD13A
:103AD00008E0002000900BE00820009008E0102093
:103AE000009005E01820009002E04FF0FF30E3E77F
:103AF00000BFD848007A9DF80010B0EBE10F01D16B
:103B00000020D9E7D34A12689179D24A52681078D6
:103B10006B460122FFF762FA10B14FF0FF30CBE79E
:103B20009DF80000C010CB4908720020C4E71CB506
:103B300080208DF80000C74A1268917CC54A5268FF
:103B400010786B460122FFF749FA10B14FF0FF30B1
:103B50001CBD6420FEF7F1FA00208DF80000BD4A7C
:103B60001268917CBB4A526810786B460122FFF7BD
:103B700035FA10B14FF0FF30EAE7B64A1268917D8E
:103B8000B44A526810786B460622FFF757FA10B114
:103B90004FF0FF30DCE79DF80500C007400F9DF8AF
:103BA000031001F0010140EA41009DF8011001F00D
:103BB000010140EA010494B1012C03D10121A5487F
:103BC000C17431E0022C03D10021A248C1742BE062
:103BD0002146A1A002F088FD4FF0FF30B8E79D4AD2
:103BE0001268D1789B4A526810786B460122FFF721
:103BF00025FA10B14FF0FF30AAE79DF8000000F061
:103C00000F042CB99E4802F06FFD4FF0FF309FE784
:103C1000042C06D19BA002F067FD01218D48C174E0
:103C200002E000218B48C174FF218A488172FF2085
:103C300088490872FF2187484172C1724FF6FF71AF
:103C4000C181FF21017481740121017380F8221068
:103C5000002180F823104175017516300160416024
:103C60008160163880F8241080F82510C1844FF444
:103C7000FA60FFF71AFF10B14FF0FF3068E702203B
:103C8000FFF7D1FE10B14FF0FF3061E72A20FFF7B8
:103C9000D2FD10B14FF0FF305AE73220FFF777FE28
:103CA00010B14FF0FF3053E70020FFF78FFD10B148
:103CB0004FF0FF304CE70020FFF706FC10B14FF04B
:103CC000FF3045E70020FFF79AFB002040E77047F0
:103CD0007CB504460D465F48807A00F0700010B94C
:103CE0004FF0FF307CBD5B4A1268117B594A526825
:103CF00010786B460622FFF7A1F910B14FF0FF30A4
:103D0000F0E79DF801009DF8001040EA012000B2A4
:103D100020809DF803009DF8021040EA012000B2C7
:103D200060809DF805009DF8041040EA012000B273
:103D3000A08015B12846FFF7CAFF0020D2E77CB566
:103D400004460D464348807A00F0080010B94FF051
:103D5000FF307CBD3F4A1268517B3E4A5268107862
:103D60006B460622FFF76AF910B14FF0FF30F0E71B
:103D70009DF801009DF8001040EA012000B220806B
:103D80009DF803009DF8021040EA012000B2608017
:103D90009DF805009DF8041040EA012000B2A080C3
:103DA00015B12846FFF793FF0020D2E72DE9FE4F1B
:103DB00005460C462748807A18B94FF0FF30BDE819
:103DC000FE8F244A1268917B224A5268107802AB17
:103DD0000222FFF733F910B14FF0FF30EFE79DF803
:103DE00009009DF8081040EA012006B214B12046EF
:103DF000FFF76DFF17494968C88805F0E1F81549D4
:103E000001904968B1F9080005F0C2F883463046D0
:103E100005F0BEF85946009005F018FA824601995F
:103E200004F084FF81461F4904F012FF80464FF0E2
:103E30008F4105F00DF9074605F06EF82860002067
:103E4000BDE710B588B004461CB94FF0FF3008B08C
:103E500010BD29E084000020556E737570706F727C
:103E600074656420736F6674776172652070726F19
:103E700064756374207265762025642E0A00000044
:103E8000DCBB000848616C662073656E73697469F9
:103E900076697479207061727420666F756E642E15
:103EA0000D0A000000000C42206830B9606820B99B
:103EB000A06810B9002008B010BDFA494968087818
:103EC00006AB03221146FFF7B9F810B14FF0FF30EF
:103ED000F1E79DF81800082101EB201000F00F0019
:103EE000ADF800009DF8190001EB201000F00F0064
:103EF000ADF802009DF81A0001EB201000F00F0051
:103F0000ADF8040020684100BDF90000403091FB8D
:103F1000F0F000B2ADF8100060684100BDF9020099
:103F2000403091FBF0F000B2ADF81200A068410003
:103F3000BDF90400403091FBF0F000B2ADF8140080
:103F4000D8494968087806AB06221146FFF776F88B
:103F500010B14FF0FF30AEE79DF819009DF8181032
:103F600040EA012000B2ADF808009DF81B009DF862
:103F70001A1040EA012000B2ADF80A009DF81D00B9
:103F80009DF81C1040EA012000B2ADF80C00BDF80D
:103F90001000BDF80810084400B2ADF81000BDF8DC
:103FA0001200BDF80A10084400B2ADF81200BDF8C6
:103FB0001400BDF80C10084400B2ADF81400BDF8B0
:103FC0001000000A8DF81800BDF81000C0B28DF87E
:103FD0001900BDF81200000A8DF81A00BDF8120091
:103FE000C0B28DF81B00BDF81400000A8DF81C004B
:103FF000BDF81400C0B28DF81D00AA4949680878C0
:1040000006AB06221146FEF7E9FF10B14FF0FF3074
:1040100051E700204FE70146A248007A30B101285D
:1040200007D0022809D003280FD10AE0FA2008801F
:104030000EE04FF4FA7008800AE04FF47A700880BE
:1040400006E04FF4FA60088002E00020088000BF1C
:1040500000BF0020704701469248407A30B10128E5
:1040600007D0022808D003280CD108E002200870ED
:104070000BE00420087008E00820087005E010201C
:10408000087002E04FF0FF30704700BF8548C07CE9
:1040900018B108784006000E08700020F4E70146C9
:1040A0008048C07A082817D2DFE800F01704070A12
:1040B0000D101318BC20088013E06220088010E067
:1040C0002A2008800DE0142008800AE00A200880D9
:1040D00007E00520088004E000BF00BF0020088042
:1040E00000BF00BF0020704701466E4890F82400D2
:1040F00010B14FF0FF3070476A48C0890880002037
:10410000F9E7014600200880401E704701464FF045
:10411000FF30704701466348007A30B1012807D06C
:10412000022808D003280CD108E05F4808600BE0A3
:104130005E48086008E05E48086005E05D48086089
:1041400002E04FF0FF30704700BF0020FBE7014660
:104150005448407A30B1012808D002280AD00328F8
:1041600010D10BE04FF4804008800EE041F69C70C7
:1041700008800AE04FF48050088006E04FF40060A9
:10418000088002E04FF0FF30704700BF4548C07C18
:1041900010B10888401008800020F5E7014641482A
:1041A000007C08700020704701463E48807A10B1BC
:1041B0000120087001E0002008700020704738B529
:1041C00004463848807A10B94FF0FF3038BD354A80
:1041D0001268117C334A526810786B460222FEF74F
:1041E0002DFF10B14FF0FF30F0E79DF801009DF872
:1041F000001040EA012000B220800020E6E72DE90F
:10420000FE4F0746884692461D46DDF830B0002630
:104210000024244890F8240010B1601EBDE8FE8FF1
:10422000002028701F48807A10B94FF0FF30F5E762
:104230001C48007C10B94FF0FF30EFE71948007CB4
:1042400000F0400008B1B01CC6B21648007C00F077
:10425000200008B1B01CC6B21248007C00F010006B
:1042600008B1B01CC6B20F48007C00F0080008B1CD
:10427000B01DC6B20B4A1268917A0A4A5268107889
:104280006B460222FEF7DAFE10B14FF0FF30C5E7B1
:104290009DF801009DF8001040EA0129B1450BDAB4
:1042A0000020BBE78400002000000343000083429D
:1042B0003333034233338341FC4840684088B9EBD1
:1042C000600F17DDF94A1268517CF84A526810787D
:1042D0006B460122FEF7B2FE10B14FF0FF309DE7B2
:1042E0009DF8000000F0100020B1FFF791F96FF089
:1042F000010093E75046FFF7EAFCEC4A1268D17AD6
:10430000EA4A526810786B463246FEF797FE10B1C3
:104310004FF0FF3082E799FBF6F0401E8BF800006B
:1043200000202870B4422AD0E048007C00F0080049
:1043300028B3601C1DF800001DF8041040EA01209D
:1043400000B2A8F80000E01C1DF80010A01C1DF829
:10435000000041EA002000B2A8F80200601D1DF82C
:104360000010201D1DF8000041EA002000B2A8F84E
:104370000400287840F008002870A01D84B2B442E0
:1043800013D0CA48007C00F0400070B1601C1DF8DA
:1043900000001DF8041040EA012000B2388028789F
:1043A00040F040002870A01C84B2B44213D0BF4833
:1043B000007C00F0200070B1601C1DF800001DF8AA
:1043C000041040EA012000B27880287840F02000F4
:1043D0002870A01C84B2B44213D0B448007C00F012
:1043E000100070B1601C1DF800001DF8041040EAB8
:1043F000012000B2B880287840F010002870A01C7E
:1044000084B200200AE7F8B504460F461646A748CE
:1044100090F8240010B94FF0FF30F8BDA348807A1F
:1044200010B94FF0FF30F8E7A04A1268917A9F4A1E
:10443000526810786B460222FEF700FE10B14FF072
:10444000FF30EAE79DF801009DF8001040EA0125E1
:10445000A54203DA00203070401EDEE79348406832
:104460004088B5EB600F17DD904A1268517C8F4A87
:10447000526810786B460122FEF7E0FD10B14FF054
:10448000FF30CAE79DF8000000F0100020B1FFF7F0
:10449000BFF86FF00100C0E7E2B2844B1B68D97A25
:1044A000824B5B6818783B46FEF7C8FD10B14FF0B1
:1044B000FF30B2E795FBF4F0401E30700020ACE70F
:1044C00001467A4880F82210002070477CB50546E6
:1044D00076494968087801AB04220D21FEF7AEFD4C
:1044E00008B107207CBD9DF80700C0F301109DF8BE
:1044F000041001F0E00140EAE1008DF800009DF8B1
:104500000700C0F381009DF8051001F0E00140EACA
:10451000E1008DF801009DF8070000F003009DF810
:10452000061001F0E00140EAE1008DF802000024ED
:104530001CE01DF8040018B9002045F8240013E021
:104540005B4845F8240006E055F82400594904F07A
:104550007FFD45F824001DF80400401EC0B20DF890
:1045600004000028F0D100BF601CC4B2032CE0DBC3
:104570000020B7E72DE9FE4F06460F4600256846A6
:10458000FFF7A4FF002442E056F8240057F8241057
:10459000A0EB010ABAF1000F01DB514601E0CAF1BC
:1045A0000001084604F0F4FC83464FF08F4104F00C
:1045B000BDFB80465DF82400002104F079FC16D094
:1045C0005DF82410404604F0B1FB82464FF07E5166
:1045D00004F03CFE814629F0004A3748416A5046C3
:1045E00004F002FE12D20120A04005430EE0324842
:1045F000C169404604F0F8FC05D32F48016A4046E3
:1046000004F0F2FD02D20120A0400543641C032CFB
:10461000BADB2846BDE8FE8F2DE9FC5F06460F4653
:10462000002522494968087801AB03220D21FEF7D5
:1046300005FD10B10720BDE8FC9F9DF8040000F0C7
:104640001F008DF804009DF8050000F01F008DF894
:1046500005009DF8060000F01F008DF806000024FC
:1046600062E056F8240057F82410A0EB010BBBF1D0
:10467000000F01DB594601E0CBF10001084604F0D0
:1046800087FC4FF08F41009004F050FB814601A859
:10469000005DC0B30849086804F092FC834659469F
:1046A000064804F043FB80460FE000008400002031
:1046B0007B14AE3E1D5A843F5494000800B04C4514
:1046C000FE49404604F0C4FC804601A8005D401E3F
:1046D000C0B201A908550028F2D14146484604F06D
:1046E00025FB83464FF07E5104F0B0FD82462AF050
:1046F000004BF3488169584604F076FD13D201203F
:10470000A04005430FE0FFE7ED480169484604F08B
:104710006BFC05D3EA484169484604F065FD02D2C6
:104720000120A0400543641C032C9ADB284682E745
:104730002DE9F04F87B005460C46914601208DF8D3
:10474000100000208DF81100DE4A1268917CDD4ACD
:104750005268107804AB0222FEF740FC20B14FF003
:10476000FF3007B0BDE8F08FC820FDF7E6FC002061
:104770008DF81000D34A1268D17BD24A5268107863
:1047800004AB0122FEF72AFC10B14FF0FF30E8E73E
:10479000CC4A12685179CB4A5268107804AB012296
:1047A000FEF71CFC10B14FF0FF30DAE7C54A126883
:1047B000917CC44A5268107804AB0122FEF70EFCCB
:1047C00010B14FF0FF30CCE7BE4A1268D17DBD4A30
:1047D0005268107804AB0122FEF700FC10B14FF0D4
:1047E000FF30BEE7B74A12681179B64A52681078AE
:1047F00004AB0122FEF7F2FB10B14FF0FF30B0E73F
:104800000C208DF81000AF4A12681179AD4A526839
:10481000107804AB0122FEF7E1FB10B14FF0FF303E
:104820009FE70F20FDF789FCA648806A407A8DF843
:104830001000A44A12689178A24A5268107804AB1A
:104840000122FEF7CBFB10B14FF0FF3089E79D4806
:10485000806A007A8DF810009A4A12685178994A55
:104860005268107804AB0122FEF7B8FB10B14FF08C
:10487000FF3076E7B9F1000F07D09248806A807A5E
:1048800040F0E0008DF8100004E08E48806A807AE5
:104890008DF810008B4A126891798A4A5268107814
:1048A00004AB0122FEF79AFB10B14FF0FF3058E73E
:1048B000B9F1000F07D08348806AC07A40F0E00069
:1048C0008DF8100003E07E48C07A8DF810007D4A14
:1048D0001268D1797B4A5268107804AB0122FEF746
:1048E0007DFB10B14FF0FF303BE7B9F1000F02D074
:1048F000C820FDF722FC40208DF81000714A126894
:104900001179704A5268107804AB0122FEF766FBF9
:1049100010B14FF0FF3024E778208DF81000694A7D
:1049200012685179674A5268107804AB0122FEF789
:1049300055FB10B14FF0FF3013E761498889FDF74F
:10494000FCFB00208DF810005E4A126851795D4A28
:104950005268107804AB0122FEF740FB10B14FF013
:10496000FF30FEE6574A1268917A564A526810782C
:1049700004AB0222FEF762FB10B14FF0FF30F0E60D
:104980009DF811009DF8101040EA012B0C209BFBB4
:10499000F0F0C6B20020A86068602860A060606087
:1049A0002060824665E0474A1268D17A454A5268DB
:1049B000107804AB0C22FEF741FB10B14FF0FF3032
:1049C000CFE69DF811009DF8101040EA012000B2DA
:1049D000ADF808009DF813009DF8121040EA012080
:1049E00000B2ADF80A009DF815009DF8141040EAD9
:1049F000012000B2ADF80C00BDF908102068084491
:104A00002060BDF90A10606808446060BDF90C10B0
:104A1000A0680844A0609DF817009DF8161040EAB1
:104A2000012000B2ADF800009DF819009DF81810A3
:104A300040EA012000B2ADF802009DF81B009DF88D
:104A40001A1040EA012000B2ADF80400BDF90010D0
:104A5000286808442860BDF9021068680844686046
:104A6000BDF90410A8680844A8600AF1010000F02C
:104A7000FF0AB24597DB1248D0F800C02868C1177A
:104A8000090441EA1041070462460023384601F058
:104A900006FE32460023CDE9020101F000FE286047
:104AA0000748D0F800C06868C117090441EA1041FE
:104AB000070462460023384606E0000054E3853FC1
:104AC000549400088400002001F0E9FD32460023E0
:104AD000CDE9020101F0E3FD6860FE48D0F800C0B6
:104AE000A868C117090441EA10410704624600237F
:104AF000384601F0D4FD32460023CDE9020101F031
:104B0000CEFDA860F348D0F804C02168C81700049F
:104B100040EA11480F04624600233846414601F03E
:104B2000BEFD32460023CDE9020101F0B8FD206050
:104B3000E848D0F804C06068C117090441EA104190
:104B4000070462460023384601F0A9FD32460023DF
:104B5000CDE9020101F0A3FD6060DE48D0F804C099
:104B6000A068C117090441EA104107046246002306
:104B7000384601F094FD32460023CDE9020101F0F0
:104B80008EFDA060A068002804DDA068A0F580303C
:104B9000A06003E0A06800F58030A0600020E0E5A0
:104BA00038B50446CC4890F82400A04201D100203A
:104BB00038BD24B3C84890F8250010B94FF0FF3035
:104BC000F6E70020FEF75EFB0020FEF77DFCC24901
:104BD000C88CFEF7DCFE00200090BF4949680878C9
:104BE0006B4601222321FEF7F9F90121BA4880F82A
:104BF00024100120FEF746FBFEF70AFD13E000201B
:104C0000FEF740FBB448007C0090B349496808783F
:104C10006B4601222321FEF7E1F90021AE4880F81E
:104C20002410FEF7F5FC0020C2E72DE9F04F8DB00F
:104C300083460F4602200C90A74890F8240020B12C
:104C40000020FFF7ADFF012600E0002603A8FFF7D4
:104C5000E2F905A8FFF7FFF901A8FFF720FA02A87B
:104C6000FFF742FA9C4890F80AA004A8FFF796FACA
:104C7000002407E0002239465846FFF759FD00B9E5
:104C800002E0641C022CF5DB00BF022C01D10025E0
:104C900028E0002407E0012206A909A8FFF748FD43
:104CA00000B902E0641C022CF5DB00BF022C01D12C
:104CB000002517E006A93846FFF75CFC00F0FF0866
:104CC00009A95846FFF7A8FC00F0FF090025B9F133
:104CD000000F01D145F00105B8F1000F01D145F0F9
:104CE000020500BFFF207C490872FF217A4841720B
:104CF000C1724FF6FF71C181FF21817201740121E0
:104D00000173BDF80C00FEF7D0FE9DF81400FEF70D
:104D10008AFEBDF80400FEF78EFDBDF80800FEF720
:104D200036FE5046FEF76BFB9DF81000FEF74EFD79
:104D300016B10120FFF734FF28460DB0BDE8F08F13
:104D4000F8B504460D46164616B94FF0FF30F8BDCB
:104D50006148807A10B94FF0FF30F8E720128DF8E3
:104D60000000E0B28DF801009DF8010028445A4986
:104D700049684989884202DD4FF0FF30E7E7564A2B
:104D80001268117E544A526810786B460222FEF770
:104D900025F910B14FF0FF30D9E7EAB24E4B1B684E
:104DA000597D4D4B5B6818783346FEF717F910B103
:104DB0004FF0FF30CBE70020C9E7F8B504460D46B9
:104DC000164616B94FF0FF30F8BD4348807A10B947
:104DD0004FF0FF30F8E720128DF80000E0B28DF8B8
:104DE00001009DF8010028443B49496849898842EF
:104DF00002DD4FF0FF30E7E7374A1268117E364A8E
:104E0000526810786B460222FEF7E8F810B14FF0B6
:104E1000FF30D9E7EAB2304B1B68597D2E4B5B68F7
:104E200018783346FEF70AF910B14FF0FF30CBE7A0
:104E30000020C9E72DE9F04385B005460E469046AF
:104E40009946254890F8250020B14FF0FF3005B075
:104E5000BDE8F08316B94FF0FF30F8E7002423E0F7
:104E6000281B102801DD102000E0281B87B2321912
:104E700039462046FFF764FF10B14FF0FF30E6E7F8
:104E800001AA39462046FFF798FF10B14FF0FF30D6
:104E9000DDE730193A4601A901F009FD10B16FF0C4
:104EA0000100D4E7E01984B2AC42D9DB4FEA2820F4
:104EB0008DF8000008F0FF008DF80100064A126826
:104EC000917E054A526810786B460222FEF786F8FA
:104ED00038B103E054940008840000204FF0FF3004
:104EE000B5E701218A4880F82510A0F82690002017
:104EF000ADE70146864890F824000870002070470E
:104F000002464FF0FF30704701464FF0FF307047C8
:104F1000F8B505460F461446002C70D0B5F5FF5F76
:104F200001DDFF2605E0202D01DA012601E0C5F3B1
:104F3000471607B90127282C02DD4FF0FF30F8BDD6
:104F40007348407D28BB724890F8240038B1002097
:104F5000FFF726FE01216E4880F8201003E00021B3
:104F60006B4880F820106A481630FFF754F86848FC
:104F70001830FFF770F866481A30FFF790F8644869
:104F80001C30FFF7B1F86248817A81771F30FFF754
:104F900005F90020FEF776F90020FEF78BFC0020D3
:104FA0008DF800005A4A12689178594A5268107870
:104FB0006B460122FEF712F810B14FF0FF30BEE74A
:104FC00040208DF80000524A1268D17B504A526846
:104FD00010786B460122FEF701F800B165E08DF80C
:104FE00000608DF801704A4A1268117A484A526886
:104FF00010786B460222FDF7F1FF08B155E047E05B
:105000000520FDF79AF84248407A072101EBC000DD
:10501000C0B28DF800003E4A1268D1793C4A52680D
:1050200010786B460122FDF7D9FF00B13DE020204A
:105030008DF80000012C03D100208DF801000EE056
:10504000052C03DC01208DF8010008E0142C03DCA2
:1050500002208DF8010002E003208DF801009DF888
:105060000100072101EB8010C0B28DF80100284A31
:105070001268917C264A526810786B460222FDF72E
:10508000ADFF00B111E0012121484175002056E734
:105090001F4A1632002103E0505C00B105E0491CB4
:1050A0000C29F9D34FF0FF3049E7FF201849087267
:1050B000FF2117484172C1724FF6FF71C181FF2174
:1050C00081720174012101730146887FFEF797F90F
:1050D0000F49C88AFEF7E9FC0D49087EFEF7A3FCDC
:1050E0000B49488BFEF7A7FB0949888BFEF74FFC5D
:1050F0000749C87FFEF76AFB054890F8200010B109
:105100000120FFF74DFD002101484175002016E701
:105110008400002010B5C8234FF48062F74940F6A0
:10512000F630FFF787FE10BD10B586B00446F4A038
:1051300000680390F3A000680290F3A0006801905B
:10514000F2A00068009004F0030003A9085C8DF849
:10515000140003A8C4F3C101405C8DF8150003A836
:10516000C4F38111405C8DF8160004F0030002A91D
:10517000085C8DF8100002A8C4F3C101405C8DF8F2
:10518000110002A8C4F38111405C8DF8120005AA39
:10519000032140F22640FFF7D3FD18B14FF0FF3056
:1051A00006B010BD04AA032140F22A40FFF7C8FD53
:1051B00010B14FF0FF30F3E701980590009804908C
:1051C00004F0040058B19DF8140040F001008DF87F
:1051D00014009DF8100040F001008DF8100004F05C
:1051E000200058B19DF8150040F001008DF8150021
:1051F0009DF8110040F001008DF8110004F480705A
:1052000058B19DF8160040F001008DF816009DF889
:10521000120040F001008DF8120005AA03214FF49E
:105220008860FFF78DFD10B14FF0FF30B8E704AA9A
:10523000032140F23140FFF783FD10B14FF0FF3002
:10524000AEE7B34804810020AAE71FB50446B04882
:10525000007A00F0030054F820000190AC48007A76
:1052600000F0040010B1019840420190A848007A73
:10527000C0F3C10054F820000290A548007A00F065
:10528000200010B1029840420290A148007AC0F379
:10529000811054F8200003909D48008900F480702C
:1052A00010B10398404203909A49019880FB010194
:1052B000800F40EA810001909649029880FB01101E
:1052C000820042EA917002909249039880FB01109B
:1052D000820042EA917003900198000E8DF8000060
:1052E0000198000C8DF801000198000A8DF8020069
:1052F0000198C0B28DF803006A4604214FF474701F
:10530000FFF71EFD18B14FF0FF3004B010BD02983A
:10531000000E8DF800000298000C8DF80100029834
:10532000000A8DF802000298C0B28DF803006A46A8
:1053300004214FF47570FFF703FD10B14FF0FF30FB
:10534000E3E70398000E8DF800000398000C8DF839
:1053500001000398000A8DF802000398C0B28DF88E
:1053600003006A4604214FF47670FFF7E9FCCCE7AE
:1053700070B588B0064601A8FEF7E9FEBDF8040046
:105380000021C90341EA5045C4036148007A00F096
:10539000030056F8200005905D48007A00F00400F4
:1053A00010B10598404205905948007AC0F3C100F9
:1053B00056F8200006905648007A00F0200010B100
:1053C0000698404206905248007AC0F3811056F881
:1053D000200007904E48008900F4807010B10798B3
:1053E000404207900598C117A0FB042301FB04313C
:1053F00000FB0510810041EA927005900698C117E4
:10540000A0FB042301FB043100FB0510810041EAED
:10541000927006900798C117A0FB042301FB04318A
:1054200000FB0510810041EA927007900598000E7C
:105430008DF808000598000C8DF809000598000A01
:105440008DF80A000598C0B28DF80B000698000E82
:105450008DF80C000698000C8DF80D000698000AD7
:105460008DF80E000698C0B28DF80F000798000E58
:105470008DF810000798000C8DF811000798000AAD
:105480008DF812000798C0B28DF8130002AA0C2103
:105490004FF42570FFF754FC08B070BD30B585B0EF
:1054A00004461DA207CA02AB07C3C82C03DD4FF098
:1054B000FF3005B030BDC82090FBF4F0401E85B22F
:1054C000280A8DF80000E8B28DF801006A46022132
:1054D00040F21620FFF734FC10B14FF0FF30E8E740
:1054E00002AA0C2140F6C120FFF72AFC10B14FF0B0
:1054F000FF30DEE7064884810020DAE77C9400086C
:105500004CCD6C000CC92C00365676002646660041
:10551000E414002009E3CA02FEF2ABC4AAF1DFDF03
:10552000BBAFDFDF0146FC48808908800020704760
:105530002DE9FC4706460F4606F0070010B1B7F507
:10554000C86F03DD4FF0FF30BDE8FC87384603F03D
:1055500037FD8146F14903F0E9FB80466846FEF7D6
:105560007AFD9DF80000022806D0042816D00828ED
:1055700026D0102848D135E04FF08D41404603F049
:1055800067FD814603F0E4FC84B2E549404603F040
:105590005FFD814603F0DCFC85B238E04FF08C41C2
:1055A000404603F055FD814603F0D2FC84B2DD494C
:1055B000404603F04DFD814603F0CAFC85B226E06B
:1055C0004FF08B41404603F043FD814603F0C0FCA1
:1055D00084B2D549404603F03BFD814603F0B8FC58
:1055E00085B214E04FF08A41404603F031FD814618
:1055F00003F0AEFC84B2CD49404603F029FD81465C
:1056000003F0A6FC85B202E04FF0FF309CE700BF3C
:1056100020128DF80400E0B28DF8050028128DF8F4
:105620000600E8B28DF8070006F00100A0B101AA5B
:1056300002214FF4EA70FFF783FB10B14FF0FF3007
:1056400082E70DF1060202214FF49270FFF778FB1A
:1056500010B14FF0FF3077E706F00200A0B101AAC9
:1056600002214FF4EC70FFF76BFB10B14FF0FF30ED
:105670006AE70DF1060202214FF49470FFF760FB18
:1056800010B14FF0FF305FE706F00400A0B101AAAF
:1056900002214FF4EE70FFF753FB10B14FF0FF30D3
:1056A00052E70DF1060202214FF49670FFF748FB16
:1056B00010B14FF0FF3047E7002045E738B504460A
:1056C0000020009004F0010020B19DF8000040F09F
:1056D0003000009004F0020020B19DF8000040F07E
:1056E0000C00009004F0040020B19DF8000040F090
:1056F000030000906A4601214FF4A470FFF720FBDD
:1057000038BD38B50446012C01DA012402E0042C2E
:1057100000DD0424601EC0B200906A46012140F200
:105720004F10FFF70DFB38BD38B50446052094FB3C
:10573000F0F085B228128DF80000E8B28DF8010073
:105740006A4602214FF4EF70FFF7FAFA38BD38B518
:105750000446052094FBF0F085B228128DF8000075
:10576000E8B28DF801006A4602214FF4ED70FFF7B0
:10577000E7FA38BDF8B505460E464FF47A7095FB4A
:10578000F0F000FB06F4200E8DF80000200C8DF8E0
:105790000100200A8DF80200E0B28DF803006A468D
:1057A00004214FF4AE70FFF7CBFAF8BD38B50446CC
:1057B000052094FBF0F084B220128DF80000E0B2D6
:1057C0008DF801006A4602214FF4AD70FFF7B8FA78
:1057D00038BD38B50446052094FBF0F084B22012A1
:1057E0008DF80000E0B28DF801006A4602214FF406
:1057F000AC70FFF7A5FA38BD38B5044614B94FF0C0
:10580000FF3038BD6A4604214FF45870FFF7D5FACF
:1058100010B14FF0FF30F4E79DF8000000069DF84E
:10582000011040EA01409DF8021040EA01209DF875
:105830000310084320600020E3E738B50446200E3B
:105840008DF80000200C8DF80100200A8DF8020070
:10585000E0B28DF803006A4604214FF45870FFF758
:105860006FFA38BD38B5044614B94FF0FF3038BD73
:105870006A4604214FF47170FFF79FFA10B14FF0A0
:10588000FF30F4E79DF8000000069DF8011040EAA3
:1058900001409DF8021040EA01209DF803100843E2
:1058A00000EB8000800020600020E0E738B504466F
:1058B0001420B4FBF0F4200E8DF80000200C8DF8BD
:1058C0000100200A8DF80200E0B28DF803006A465C
:1058D00004214FF47170FFF733FA38BD38B5044630
:1058E00064B120208DF8000028208DF801003020C0
:1058F0008DF8020038208DF8030004E0A322042173
:10590000684601F000F86A46042140F69E20FFF741
:1059100017FAFDF77DFE38BDE4140020000048436F
:10592000000040460000C045000040450000C04463
:1059300038B5044664B1C0208DF80000C2208DF84F
:105940000100C4208DF80200C6208DF8030004E099
:105950008B220421684600F0D6FF6A46042140F6F7
:105960009820FFF7EDF9FDF753FE38BD3EB504462C
:105970006CB1FDA1D1E900208968CDE90020029138
:105980006A4609214FF49760FFF7DAF93EBDF9A2A4
:10599000D2E900109268CDE9010200916A4609211E
:1059A0004FF49760FFF7CCF9F0E73EB504460220CC
:1059B0008DF80000CA208DF80100E3208DF8020068
:1059C00009208DF803006A4604216820FFF7B8F922
:1059D000A3208DF8000004F0400048B1C0208DF8ED
:1059E0000100C8208DF80200C2208DF8030006E0F7
:1059F000A3208DF801008DF802008DF8030004F457
:105A0000C07048B1C4208DF80400CC208DF805008A
:105A1000C6208DF8060006E0A3208DF804008DF85E
:105A200005008DF80600A3208DF807008DF808000A
:105A30008DF809006A460A2140F6A720FFF780F991
:105A400004F0030018B120208DF8000002E0D820F7
:105A50008DF800006A46012140F6B620FFF770F984
:105A600004F0200018B10120FFF780FF02E00020C1
:105A7000FFF77CFF04F4C07008B304F4807060B1D9
:105A8000B2208DF800008B208DF80100B6208DF833
:105A900002009B208DF803000BE0B0208DF8000081
:105AA00080208DF80100B4208DF8020090208DF840
:105AB00003006A46042140F6A220FFF741F904F0F2
:105AC000010020B3F8208DF800006A4601214FF450
:105AD0000B60FFF735F9FA210720FFF729FD0720B2
